:100000000C942A000C9447000C9447000C94470071
:100010000C9447000C9447000C9447000C94470044
:100020000C9447000C94F5020C9447000C94470084
:100030000C9447000C9447000C9447000C94470024
:100040000C9447000C9447000C9447000C94470014
:100050000C94470011241FBECFE5D8E0DEBFCDBF12
:1000600010E0A0E6B0E0E6E9FEE002C005900D92E7
:10007000A63DB107D9F721E0A6EDB0E001C01D9281
:10008000A731B207E1F70E9406030C9449070C94CC
:1000900000008FE685BD41E067E083E00C947C00C2
:1000A00089B7846089BF1FBC40E060E081E00C94A8
:1000B0007C001DBC1CBC81E48EBD80E288BF84E056
:1000C00088BF08B605FEFDCF1DBC1CBC81E08EBDFF
:1000D00080E288BF84E088BF08B605FEFDCF66B524
:1000E00077B580E090E008958FB780688FBF08955E
:1000F0008FB78F778FBF08958130A9F028F08230B5
:1001000009F1833071F108952AB381E090E001C0D4
:10011000880F6A95EAF7411103C08095822301C0D8
:10012000822B8ABB089527B381E090E001C0880F3D
:100130006A95EAF7411103C08095822301C0822BA2
:1001400087BB089524B381E090E001C0880F6A95D1
:10015000EAF7411103C08095822301C0822B84BB42
:10016000089521B381E090E001C0880F6A95EAF715
:10017000411103C08095822301C0822B81BB089569
:100180008130A9F028F0823009F1833071F10895AF
:100190002BB381E090E001C0880F6A95EAF7413007
:1001A00011F4822B02C0809582238BBB089528B363
:1001B00081E090E001C0880F6A95EAF7413011F4C0
:1001C000822B02C08095822388BB089525B381E0ED
:1001D00090E001C0880F6A95EAF7413011F4822B54
:1001E00002C08095822385BB089522B381E090E010
:1001F00001C0880F6A95EAF7413011F4822B02C0E2
:100200008095822382BB0895813071F028F082307E
:1002100099F08330C9F008958BB3962F9095892378
:100220004623482B4BBB08958BB3962F909589237B
:100230004623482B48BB08958BB3962F909589236E
:100240004623482B45BB08958BB3962F9095892361
:100250004623482B42BB0895813081F028F082303C
:10026000B9F08330F9F008952BB381E090E001C03C
:10027000880F6A95EAF782278BBB089528B381E03F
:1002800090E001C0880F6A95EAF7822788BB08953D
:1002900025B381E090E001C0880F6A95EAF78227D4
:1002A00085BB089522B381E090E001C0880F6A9574
:1002B000EAF7822782BB0895813049F030F082301E
:1002C00041F0833079F480B305C089B303C086B3AD
:1002D00001C083B390E002C0959587956A95E2F7D7
:1002E0008170089580E0089541E060E080E00E9420
:1002F0007C000C94500041E060E080E00E94C0006F
:1003000085E38A95F1F7000040E060E080E00C941E
:10031000C0000E9459000E94250629E23CE349EEF4
:1003200053E40E9484050E94F60508950C94490048
:1003300083BD089541E063E081E00E94C00085E054
:100340008A95F1F7000040E063E081E00E94C00080
:100350008FE39FE10197F1F700C000000895CF936C
:10036000C82F41E061E081E00E94C0004C2F60EFA7
:1003700080E00E9404010E949A014C2F4295407F28
:1003800060EF80E00E940401CF910C949A01CF931A
:10039000C82F40E061E081E00E94C0004C2F60EF78
:1003A00080E00E9404010E949A014C2F4295407FF8
:1003B00060EF80E00E940401CF910C949A01EF92CB
:1003C000FF920F931F93CF9341E064E080E00E947F
:1003D0007C0041E065E080E00E947C0041E066E056
:1003E00080E00E947C0041E067E080E00E947C00A9
:1003F00041E061E081E00E947C0041E062E081E058
:100400000E947C0041E063E081E00E947C0040E0CB
:1004100062E081E00E94C0008FE59AEE0197F1F75B
:1004200000C0000083E00E94C7018FE19EE40197B5
:10043000F1F700C0000083E00E94C7018FE891E05F
:100440000197F1F700C0000083E00E94C70182E03D
:100450000E94C70188E20E94C70187EDE82E80E074
:10046000F82EC0E48C2F0E94C70100E010E0F701D5
:10047000E00FF11F80810E94AF010F5F1F4F083016
:100480001105A9F7C85F98E0E90EF11CC03851F7D3
:1004900080E80E94C7018CE0CF911F910F91FF90DF
:1004A000EF900C94C7010C94AF01CF93DF93EC0154
:1004B0008991882319F00E94AF01FACFDF91CF9183
:1004C0000895882319F0813019F0089580E801C05B
:1004D00080EC860F0C94C701CF93DF9368EE73E036
:1004E0000E94FE04EC0180E3860F0E94AF01CE0162
:1004F00064E670E00E94FE04EC0180E3860F0E9437
:10050000AF01CE016AE070E00E94FE04C82F80E3D4
:10051000860F0E94AF0180E38C0FDF91CF910C9486
:10052000AF018F929F92AF92BF92CF92DF92EF92E4
:10053000FF924B015C010E94F6056B017C01CB012F
:100540000E946C028EE20E94AF01B60180E090E052
:100550000E9425069B01AC01C501B4010E94120551
:1005600020E030E048EC52E40E94DC060E94F605F0
:10057000CB01FF90EF90DF90CF90BF90AF909F9016
:100580008F900C946C0241E066E082E00E947C0057
:1005900041E067E082E00C947C0041E066E082E0AC
:1005A0000E94C00041E067E082E00C94C00040E09F
:1005B00066E082E00E94C00040E067E082E00C94C8
:1005C000C00040E066E082E00E94C00041E067E0D9
:1005D00082E00C94C00040E067E082E00E94C0002E
:1005E00041E066E082E00C94C0001F920F920FB6CB
:1005F0000F9211248F938091D6008F5F8093D60045
:100600008F910F900FBE0F901F9018958FEF82BBA8
:100610000E9496010E94DF0181E00E94C7012FEF36
:1006200083ED90E3215080409040E1F700C000004E
:100630000E9474000E9474010E94C3020E94CD02B5
:10064000C4E1D0E0C12CD12C7601D23039F0D330C6
:1006500009F434C1D13009F0A5C102C0C4E198C089
:10066000D1E020E030E040E251E4C701B6010E9451
:100670007F05181654F3CD3241F30E94D70281E072
:100680000E94C70160E080E00E94610280E690E085
:100690000E9455028C2F0E949801CB5F0E947B0123
:1006A0008091D6000E9489010E9425066B017C0181
:1006B0002FEF83ED90E3215080409040E1F700C0A0
:1006C000000020E030E040E251E4C701B6010E94A2
:1006D0007F0518160CF0D2E020E030E040E251E453
:1006E000C701B6010E94D70618160CF0BACF0E94B7
:1006F000D70281E00E94C70160E080E00E946102B1
:100700008FE690E00E94550284E10E9498012FEF4D
:1007100083ED90E3215080409040E1F700C000005D
:100720000E947B018091D6000E9489010E942506CB
:100730006B017C0120E030E040E251E4C701B601EA
:100740000E947F0518160CF10E94E10281E00E94D0
:10075000C70160E080E00E94610284E890E00E94AE
:1007600055020E947B018091D6000E9489010E945F
:1007700025066B017C012FEF83ED90E32150804033
:100780009040E1F700C00000D5CFD0E06ACFD0E0C4
:1007900020E030E040E251E4C701B6010E947F054D
:1007A00087FF53CFCC2309F450CF0E94D70281E0BA
:1007B0000E94C70160E080E00E9461028EE890E044
:1007C0000E9455028C2F0E949801C5500E947B0107
:1007D0008091D6000E9489010E9425066B017C0150
:1007E0002FEF83ED90E3215080409040E1F700C06F
:1007F000000020E030E040E251E4C701B6010E9471
:100800007F0518160CF0D3E020E030E040E251E420
:10081000C701B6010E94D70618160CF0B9CF0E9486
:10082000D70281E00E94C70160E080E00E9461027F
:100830008FE690E00E94550284E10E9498012FEF1C
:1008400083ED90E3215080409040E1F700C000002C
:100850000E947B018091D6000E9489010E9425069A
:100860006B017C0120E030E040E251E4C701B601B9
:100870000E947F0518160CF48ACF0E94EB0281E0DB
:100880000E94C70160E080E00E9461028EE990E072
:100890000E9455020E947B018091D6000E9489012E
:1008A0000E9425066B017C012FEF83ED90E3215020
:1008B00080409040E1F700C00000D4CF20E030E05D
:1008C00040E251E4C701B6010E947F0518160CF101
:1008D0000E94EB0281E00E94C70160E080E00E947C
:1008E000610289EA90E00E9455020E947B0180919A
:1008F000D6000E9489010E9425066B017C012FEF22
:1009000083ED90E3215080409040E1F700C000006B
:10091000D5CF20E030E040E251E4C701B6010E94AB
:10092000D70618160CF091CE0E94D70281E00E94E3
:10093000C70160E080E00E9461028FE690E00E94C3
:1009400055020E94D70284E10E9498012FEF83EDA7
:1009500090E3215080409040E1F700C00000D0E0DB
:1009600020E030E040E251E4C701B6010E947F057B
:1009700018167CF20E94EB0281E00E94C70160E041
:1009800080E00E94610280EC90E00E9455020E948B
:100990007B018091D6000E9489010E9425066B018F
:1009A0007C01D4CF0E94CD0281E00E94C70160E0AB
:1009B00080E00E9461028BEC90E00E94550220E0F2
:1009C00030E040E251E4C701B6010E94D706181694
:1009D0000CF046CE0E947B018091D6000E948901D6
:1009E0000E9425066B017C012FEF83ED90E32150DF
:1009F00080409040E1F700C00000E1CFAA1BBB1B84
:100A000051E107C0AA1FBB1FA617B70710F0A61B0E
:100A1000B70B881F991F5A95A9F780959095BC012F
:100A2000CD0108955058BB27AA270E942A050C948F
:100A30009D060E948F0638F00E94960620F039F439
:100A40009F3F19F426F40C948C060EF4E095E7FB16
:100A50000C948606E92F0E94AE0658F3BA17620777
:100A600073078407950720F079F4A6F50C94D00657
:100A70000EF4E0950B2EBA2FA02D0B01B9019001B9
:100A80000C01CA01A0011124FF27591B99F0593FFD
:100A900050F4503E68F11A16F040A22F232F342F45
:100AA0004427585FF3CF469537952795A795F04093
:100AB0005395C9F77EF41F16BA0B620B730B840BA8
:100AC000BAF09150A1F0FF0FBB1F661F771F881F60
:100AD000C2F70EC0BA0F621F731F841F48F48795B8
:100AE00077956795B795F7959E3F08F0B0CF9395AA
:100AF000880F08F09927EE0F9795879508950E9423
:100B0000620608F481E008950E9498050C949D0601
:100B10000E94960658F00E948F0640F029F45F3F2D
:100B200029F00C94860651110C94D1060C948C0675
:100B30000E94AE0668F39923B1F3552391F3951BF8
:100B4000550BBB27AA2762177307840738F09F5FEE
:100B50005F4F220F331F441FAA1FA9F335D00E2E5B
:100B60003AF0E0E832D091505040E695001CCAF7C8
:100B70002BD0FE2F29D0660F771F881FBB1F26178B
:100B800037074807AB07B0E809F0BB0B802DBF0162
:100B9000FF2793585F4F3AF09E3F510578F00C9431
:100BA00086060C94D1065F3FE4F3983ED4F3869515
:100BB00077956795B795F7959F5FC9F7880F911D52
:100BC0009695879597F90895E1E0660F771F881F3E
:100BD000BB1F621773078407BA0720F0621B730BF1
:100BE000840BBA0BEE1F88F7E09508950E94B606B5
:100BF00088F09F5798F0B92F9927B751B0F0E1F0DE
:100C0000660F771F881F991F1AF0BA95C9F714C08D
:100C1000B13091F00E94D006B1E008950C94D00656
:100C2000672F782F8827B85F39F0B93FCCF38695C6
:100C300077956795B395D9F73EF490958095709523
:100C400061957F4F8F4F9F4F0895E89409C097FBA0
:100C50003EF490958095709561957F4F8F4F9F4F93
:100C60009923A9F0F92F96E9BB279395F6958795D7
:100C700077956795B795F111F8CFFAF4BB0F11F49A
:100C800060FF1BC06F5F7F4F8F4F9F4F16C0882341
:100C900011F096E911C0772321F09EE8872F762F77
:100CA00005C0662371F096E8862F70E060E02AF0B8
:100CB0009A95660F771F881FDAF7880F96958795A4
:100CC00097F90895990F0008550FAA0BE0E8FEEF79
:100CD00016161706E807F907C0F012161306E40700
:100CE000F50798F0621B730B840B950B39F40A26F9
:100CF00061F0232B242B252B21F408950A2609F4D7
:100D0000A140A6958FEF811D811D089597F99F67DA
:100D100080E870E060E008959FEF80EC0895002483
:100D20000A941616170618060906089500240A9450
:100D300012161306140605060895092E0394000CD6
:100D400011F4882352F0BB0F40F4BF2B11F460FF65
:100D500004C06F5F7F4F8F4F9F4F089557FD90588E
:100D6000440F551F59F05F3F71F04795880F97FB6F
:100D7000991F61F09F3F79F0879508951216130629
:100D80001406551FF2CF4695F1DF08C01616170658
:100D90001806991FF1CF869571056105089408958D
:100DA000E894BB2766277727CB0197F908950E941F
:100DB000620608F48FEF08950E94EF060C949D06DA
:100DC0000E948F0638F00E94960620F0952311F0BD
:100DD0000C9486060C948C0611240C94D1060E9467
:100DE000AE0670F3959FC1F3950F50E0551F629FBB
:100DF000F001729FBB27F00DB11D639FAA27F00D74
:100E0000B11DAA1F649F6627B00DA11D661F829F9A
:100E10002227B00DA11D621F739FB00DA11D621F7F
:100E2000839FA00D611D221F749F3327A00D611D9C
:100E3000231F849F600D211D822F762F6A2F11247E
:100E40009F5750409AF0F1F088234AF0EE0FFF1FB1
:100E5000BB1F661F771F881F91505040A9F79E3F08
:100E6000510580F00C9486060C94D1065F3FE4F3A4
:100E7000983ED4F3869577956795B795F795E7955E
:100E80009F5FC1F7FE2B880F911D9695879597F967
:060E90000895F894FFCF65
:100E9600436865636B204C6566742047617000503B
:100EA60072657061726520666F7220476F546F209D
:100EB600476170005475726E204C65667400436815
:100EC60065636B20526967687420476170005475CA
:100ED600726E205269676874005475726E20416E96
:100EE6006420436865636B20416E7920476170001A
:100EF6005472756E20526967687400476F20466F9A
:060F0600727761726400C5
:00000001FF
